:10000000C01F0020592000006F6E00004520000036
:1000100045200000452000004520000000000000B1
:10002000000000000000000000000000152100009A
:100030004520000000000000B52000004520000021
:10004000D5220000D5220000D5220000D5220000D4
:10005000D5220000D5220000D5220000D5220000C4
:10006000D5220000D5220000D5220000D5220000B4
:10007000D5220000D5220000D5220000D5220000A4
:10008000D5220000D5220000D5220000D522000094
:10009000D5220000D5220000D5220000D522000084
:1000A000D5220000D5220000D5220000D522000074
:1000B000D5220000D5220000D5220000D522000064
:1000C000D5220000D5220000D5220000D522000054
:1000D000D5220000D5220000D5220000D522000044
:1000E000D5220000D5220000D5220000D522000034
:1000F000D5220000D5220000D5220000D522000024
:1001000053B94AB9002908BF00281CBF4FF0FF317E
:100110004FF0FF3000F00CB8ADF1080C6DE904CEE3
:1001200000F010F8DDF804E0DDE9022304B07047C8
:10013000704700BF034613F8012B002AFBD1181AA1
:10014000013870472DE9F04786468C460846089EE0
:10015000154674461946002B40F0C2808542B2FA1B
:1001600082F245D94AB1C2F1200300FA02FC2EFA0C
:1001700003F3954043EA0C0C94404FEA154EA8B2A5
:10018000BCFBFEF8230C0EFB18CC08FB00F943EA7D
:100190000C43994528D9EB1808F1FF3704D299454B
:1001A00002D9A8F102072B44A3EB0903A4B2B3FBC5
:1001B000FEFC0EFB1C330CFB00F044EA0344A0429F
:1001C00014D92C190CF1FF3304D2A04202D9ACF19E
:1001D00002032C44241A43EA07401EB1D4400023F2
:1001E00034607360BDE8F0874746DDE76346F1E7BA
:1001F00092BB431B01214FEA154EAFB2B3FBFEFC8D
:10020000200C0EFB1C330CFB07F840EA0343984517
:1002100062D9EB180CF1FF3004D2984502D9ACF149
:1002200002002B44A3EB0803A4B2B3FBFEFC0EFBBD
:100230001C330CFB07F744EA0344A7424ED92C19A0
:100240000CF1FF3304D2A74202D9ACF102032C44D3
:10025000E41B43EA0040C0E7C2F1200320FA03F1A7
:10026000954090402EFA03F303434FEA154EAFB288
:10027000B1FBFEFC0EFB1C10190C0CFB07F841EA4D
:100280000041884504FA02F422D969180CF1FF30C4
:1002900004D2884502D9ACF102002944A1EB08013F
:1002A0009BB2B1FBFEFC0EFB1C110CFB07F743EAF3
:1002B00001439F420ED9EB180CF1FF3104D29F424B
:1002C00002D9ACF102012B44DB1B41EA004192E769
:1002D0006046E3E76146F7E76046A3E76346B7E7B2
:1002E000834206D916B9002108467BE7C6E900E03B
:1002F000F9E7B3FA83F78FB9834201D3724508D87F
:10030000BEEB020460EB030301209C461EB90021F2
:1003100068E73846FAE7C6E9004CF8E7C7F1200C71
:10032000BB4022FA0CF41C432EFA0CF120FA0CF319
:10033000B84001434FEA14490EFA07F5B3FBF9F848
:100340001FFA84FE09FB18300B0C08FB0EFA43EA77
:1003500000439A4502FA07F240D9E31808F1FF304A
:1003600004D29A4502D9A8F102002344A3EB0A0360
:1003700089B2B3FBF9F809FB183308FB0EFE41EA1A
:1003800003418E452CD9611808F1FF3304D28E4504
:1003900002D9A8F10203214443EA0040A0FB0298DD
:1003A000A1EB0E014145CE46434602D306D14D4551
:1003B00004D2B9EB020E68EB04030138002EA6D07C
:1003C000B5EB0E0261EB030101FA0CFC22FA07F314
:1003D0004CEA0303F940C6E9003198E74046C5E717
:1003E0004346D9E72DE9F043384891B005F0F8FFCE
:1003F000374805F0F5FF374D284606F075FF48B938
:100400002968354805F0ECFF4FF0FF34204611B065
:10041000BDE8F083314B93E8070003AE86E80700A0
:100420001E2200210DF1220007F045F92C4A2D4B28
:100430002D480A96CDE90623282302228DF8203084
:100440004FF001083C234FF47A518DF821308DF89C
:100450003C208DF83E80CDF82C8005F0C1FFAF68C0
:1004600006A93B6828469847041E04DA1F4821461F
:1004700005F0B6FFCAE77B68414628469847041E48
:1004800002DA1B482146F3E71A48DFF86C90DFF8E0
:100490006C8005F0A5FF00214FF47A73009303915F
:1004A0000691BC6806AB32462846A047041E02DA15
:1004B00013482146DCE70399069A484606F03EFBBE
:1004C0000399404606F062FFE5E700BF0C7D00009F
:1004D0001E7D000068780000297D0000D07A0000B1
:1004E00040420F00003E4900397D00005B7D000066
:1004F0007E7D0000977D0000C0040020D80500200C
:10050000AB7D00002DE9F04F91B08407009302F01D
:1005100004030293C2F3C20303F10103DDF8688010
:10052000039205460E46059340F0BA81041D30B192
:10053000072909D86FF01B0011B0BDE8F08F01F05A
:1005400007063444C6F10806009B4FF00009591E07
:100550004FF0040A4FF0FF330193CDF810904F464F
:10056000CB4653460DB1009A22600598002800F34F
:10057000E8809848009A824203D397488242C0F0AC
:10058000E080039AA4EB050E92074FEA9E0000F16B
:1005900003810F2F00F2B180002D00F0058107F1DB
:1005A00040020DEB020C019A0CF8200C0CF8102CF8
:1005B000049801300490E7E07A285DD84B280ED8E3
:1005C000472859D829282DD8252852D054D8202852
:1005D0007AD02338D0F1000B4BEB000B74E04C3891
:1005E0002E2849D8DFE800F0704848484848484875
:1005F000484848484B484848484848484859484B64
:100600004B595959704B6D487048184B18484882DF
:100610007F4B48484B487F0000204FF0000B4FF0C5
:10062000040A38E02A38C0B2012202FA00F010EAC7
:100630000E0F49D110F0625C2FD110EA020B43D0AB
:100640006046013C5444B4FBFAF40AFB04F4002D68
:1006500061D0A3EB050CA444B4453FF66BAF002872
:1006600068D1042B47D158F8043B23600434042399
:100670002AE0019A013A01924FF0000B24E011F8B0
:10068000010C6C2834D111F8023C00206C2B8346FD
:10069000C5D14FF0080A5346D3E708F1070828F000
:1006A00007080734F8E802AB24F0070435B10698D0
:1006B0002044B0423FF63EAFC4E900AB08344FF0EF
:1006C000000B4FF0080A534611F8010F002878D0AC
:1006D000BBF1000F7FF470AF2528F5D1019B0133EA
:1006E00001934FF0010B4FF0040AECE7584694E7F2
:1006F00000208346A5E7082B02D06FF015001BE70A
:1007000008F1070828F00708F8E80223C4E90023E5
:1007100008340823D8E768B9042B02D108F104088B
:10072000A4E7082BE9D108F1070828F0070808F129
:100730000808EDE7059A013A059258F8042B009253
:1007400010E7039A900720D5A4EB050E4FEA9E0010
:100750004FF0010CBEF5007FCFD20F2FCDD8F5B1F1
:1007600007F140020DEB020EC0B2019A0EF8200C08
:100770000EF8102CBCF1000F3FF41AAF60F07F00B0
:100780000EF8200C09F101090137C5F10802043403
:1007900006924FF6DA7E97E74FF0000CDAE7BCF1ED
:1007A000000F01D00136EFE7029802360028EBD1A6
:1007B0000098CDE90631FFF7BDFCDDE906310644BE
:1007C000E2E7631BB3F5806F97D23DB9A6F1080449
:1007D000E018B1E6B0770000C0870000029A2860F8
:1007E0009B082B709DF81030C2B1EB7085F8029019
:1007F000B9F1000F05D008A80022C5F1010C9742FD
:100800000ED1C5F101030DF120084FF0000A01934C
:100810000DF1300B574512D1601B8DE66B70E5E78B
:1008200010F8013B190608D50CEB040EB64503F091
:100830007F033FF67FAE04F8013B0132DFE7B9F1F9
:10084000000F03D098F90020002A17DB029BD3B1D8
:100850001AF80B2004F8012B0022019B18191044F0
:10086000B0423FF667AE98F8000004F8010B00991B
:100870000392204606F011FF039A14440AF1010A7C
:1008800008F10108C6E798F8002055F822300093D7
:10089000029B45F822300098FFF74CFC421CDCE735
:1008A0006FF00D0048E600BF2DE9F04F97B000AFA4
:1008B00090F802A0D7F880B03B62CBF3C0030446A7
:1008C000FA62BB61894641B9457800780AEB80003D
:1008D00020444D4517D8A0EB0409E378FB61BAF139
:1008E000000F02D01BF0010F16D1FB6953BBFB6A4E
:1008F0001BB13A6A4946204698474D4628465C3720
:10090000BD46BDE8F08F461C3046FFF713FC0130B2
:10091000304409F10109DCE7237862687A62FA6AF7
:100920009900796104EB8301002A40F000814D4673
:100930000E4601EB0A094FF000084E454CD101EB81
:100940000A0610E01BF0020FD1D023789A007A61DA
:1009500062687A62FA6A04EB8301002A77D14D4615
:1009600001EB0A0690461BF0050F0CBF0223012382
:10097000FB62FB6906EB430A0BF00203BB625645C0
:10098000BCD016F8021B16F8013C54F82390994B82
:10099000994502D3984B994536D3BB69002B40D07B
:1009A000786A05F0F6FC00283BD0E9468AB06A4632
:1009B000924B53617B6AC2E906314FF40073138492
:1009C0008F4B42F8103F8F4800234FF4125100F034
:1009D0001BFD023DCD46D2E716F8013BF96254F803
:1009E0002300FFF7A7FBD7F88430F96A01304BB139
:1009F000D7F8883098453EBFD7F8843023F81800E0
:100A000008F10108054498E7BB6923B1786A05F04D
:100A1000C0FC0028C9D11BF0010F05D1FB6AED1AFB
:100A2000ADE7BB6A002BAAD04846FFF783FBD7F897
:100A3000843053B1D7F8883098453FBFD7F8842029
:100A4000431C22F8183008F10108054497E7BAF171
:100A5000000F72D01BF0040672D0D046002607F1BA
:100A6000480052463B61B96206F017FEB96A3B691D
:100A700001EB0A02BA62FA69F9695200FA60BA6ACD
:100A800002EB41023A610BF00202BA603A69B96ABC
:100A90008A4257D162787A621BF0020F32440CBF4F
:100AA0004FEA580100211BF0010FD2B240F09F80A5
:100AB0001BF0040F14BF40460020BB616270A070A1
:100AC000E1703A6A7969FB6A20469847051EFFF68D
:100AD00015AFBB6923707B6A6370FB69E3704146A5
:100AE0003A6AFB6A84F802A007F148009847B0F11F
:100AF0000008C0F2BB807B693A6AA9EB0A01C91AF7
:100B0000FB68C91AD7E90A0398470028C0F2B080E9
:100B1000A84408EB00054FF0000B07F1380AB34575
:100B200072D300213A6AFB6A08469847E6E65646C1
:100B30004FF0000807F1380093E75646D04697E794
:100B4000B04695E7BA6A12F8021BBA6212F8015C65
:100B5000284A54F82500904202D3274A90421ED3D7
:100B6000BA6932B1786A7B6005F013FC7B680028B3
:100B70008CD1BA6802BB08F1280207F1300C08F1E9
:100B80000100944407F1580252FA80F008F102087B
:100B90000CF8101C5FFA88F800F8105C76E7BA6968
:100BA0003AB1786A7B6005F0F4FB7B6800287FF43B
:100BB0006DAF1BF0010F09D006F1280207F13000DC
:100BC000711C161806F8205CCEB25FE71BF0040F0C
:100BD0003FF45CAF08F1280207F1300008F1010191
:100BE00002EB000808F8105C5FFA81F84EE700207D
:100BF00063E700BFB0770000C0870000BC7D000045
:100C000004000001487A00001BF80A3087F83730EA
:100C100054F82390D7F884302BB3D7F888309B450D
:100C200021D2D7F8843033F81B803A6AFB6A01215D
:100C300007F13700984700281ADB0544B8F1000F88
:100C400006D14846FFF776FA00F101081FFA88F846
:100C50003A6AFB6A414648469847002808DB054443
:100C60000BF1010B5BE74FF00008DEE7454645E678
:100C7000054643E6014B1860704700BFE0040020C2
:100C800080B505460E461746984604F051FD0346CA
:100C900006F084FDDFF81890044649F8003042461B
:100CA00030463946A84754F8090001F0EDF900BF75
:100CB000080000002DE9F047058B04462807904600
:100CC00011D4022905F0070540F0CC80204605F03C
:100CD000FEFD78B10138218B042811D8DFE800F03F
:100CE000C2106D85950001290CBF45F0100545F037
:100CF0002005258388F31188BFF36F8FBDE8F08747
:100D000001F0070AAA4500F0A5800027B9463E4633
:100D1000A368002B00F0BC8041F00801218388F318
:100D20001188BFF36F8FA168002900F0BA800D68A9
:100D3000002900F0B680D1F80480334652462046A0
:100D4000C047002D76D02B6829461D46F0E701F0FC
:100D500007035A1F012A1BD8002221F00701062B86
:100D6000276889B2C4E9002209D13B4603E0628BBF
:100D7000013262831B68002BF9D141F0020121830B
:100D8000204605F0A4FD00287AD041F0200176E04D
:100D9000042B0AD121F0070189B22183204605F0F6
:100DA00096FD10B141F020012183218B01F0070A4B
:100DB000AA454FD00027B946AAE7236921F00701C9
:100DC00041F00601062DD3F8009021832DD1B9F111
:100DD000000F3FD041F00801218388F31188BFF351
:100DE0006F8F3A492046C84729E021F0070123695F
:100DF00041F0040189B2042DD3F804902183E6D098
:100E000000273E464FF0040A82E721F007012369DC
:100E100041F0050189B2052DD3F808902183D6D081
:100E200000273E464FF0050A72E700273E464FF086
:100E3000060A6DE72B4687E7B9F1000FD1D1EFF332
:100E40001188202383F31288BFF36F8F238B23F045
:100E500008032383258BEA062ED525F01003238370
:100E600005F007056669218B002EBFF670AF0023E1
:100E70002768C4E9003321F0070141F00101218313
:100E8000218B01F0070AAA454FF000097FF440AF1B
:100E9000002F9CD041F00801218388F31188BFF313
:100EA0006F8F002FC8D03D683946334652462046E2
:100EB00005F039FD2F46F4E7AB067FF51BAF25F0B3
:100EC0002003238305F0070500E700BF53690000F6
:100ED0002DE9F047DFF85880044607464FF0010936
:100EE00014B93846BDE8F08794FAA4F5B5FA85F54B
:100EF00009FA05F32E0108EB05156FEA030A24EA47
:100F000003042B7B002BEBD058F806301B694BB940
:100F10004644042273682846196807EA0A0705F060
:100F200062FEDDE7284698470028D9D1F0E700BFE8
:100F3000A87A000030B51049104889B0002206F0A8
:100F400084FB0F4D0F4900220023CDE90623002426
:100F50000E23CDE90334CDE901440B4B00944FF44B
:100F60004072284604F096F90849284606F07EFAB1
:100F7000204609B030BD00BF910F0000900A00204C
:100F800008060020C00E0020AD120000707E000098
:100F9000014804F0D9B800BFF40500202DE9F84F4E
:100FA000804624480F4605F0FEFD0646002839D04D
:100FB00000252846BDE8F88FA4EB0B0362681B11DF
:100FC00001331371237B83B12368DB680BB12046A7
:100FD0009847636883F8069023681B69D3B96368F0
:100FE00004221968204605F0FEFD013610345445F0
:100FF000E2D3B8F1000FDCD0002DD9D02846FFF79E
:1010000067FF0546002FF7D000214FF4A47006F0CB
:10101000C3FAF1E7204698470028E0D009FA06F322
:101020001D43E2E7044CDFF814A00546A3464FF049
:101030000109DCE7980C0020A87A0000C87A0000BB
:10104000014B53F820007047FC7A000008B50346B6
:1010500008462BB1044A136000F06CFC002008BD68
:101060006FF01500FBE700BFE404002010B5044C4E
:10107000237813B9034804F067F80123237010BDE7
:10108000780E0020F405002010B504460B4805F04A
:101090008AFD5CB1BFF35B8F094B53E8001F013938
:1010A00043E80012002AF8D1BFF35B8F054806F031
:1010B000D8FA0548BDE8104004F046B8900C00206E
:1010C000940C0020900A0020F40500200020064B1C
:1010D000BFF35B8F014653E8000F43E80012002A7C
:1010E000F9D1BFF35B8F7047900C002070B5FFF70C
:1010F000EDFF084C084E0546B44200D370BD63684E
:101100005B792BB123685B6813B129462046984769
:101110001034F1E7A87A0000C87A000010B5044C3A
:101120000449204605F06CFA034B1C6010BD00BF5B
:101130009C050020E87A0000880C0020084A094835
:1011400008B500231370084A1360084A4FF40041A1
:101150001360FFF77BFFBDE80840FFF7DFBF00BF6C
:10116000790E0020A36B0000900C0020940C00204E
:10117000014600220148002305F063BA9C050020C7
:10118000014805F0FCBA00BF9C050020024B014657
:10119000186805F048BB00BF880C0020014805F026
:1011A0007DBB00BF9C05002070B5294B1878002836
:1011B0004DD0FFF7E5FF0546002845D1254B264CCD
:1011C0001B68002B19DD06F03EFA4FF47A72A0FB83
:1011D000020302FB0131C30BD4E9002043EA41437F
:1011E0009B1A4FEAD13140F2E93261EB00019342A0
:1011F00071F1000101D3FFF779FFD4E9003213F553
:101200007A7342F10002C4E90032BDE87040FFF792
:10121000C5BF63685B7923B1236829461B682046F4
:1012200098471034B442F4D32846FFF7AFFFBFF31A
:101230005B8F0A4B53E8001F013943E80012002A74
:10124000F8D1BFF35B8FB9E7054C064EEAE770BDF6
:10125000780E0020900C0020880A0020940C0020BA
:10126000A87A0000C87A000070B50D4D297861B9E0
:101270000120FFF793FE0B4C0B4EB44206D3FFF751
:1012800093FF0028FBD101232B7070BD63685B794D
:101290001BB1236820469B6898471034EDE700BFD8
:1012A000790E0020A87A0000C87A000000212DE9FC
:1012B000F0470846FFF772FE044658B340F26768ED
:1012C0004FF0000906F06AFA1B4B1C4A1B581360CA
:1012D00033B11B4B1B68092B02DD1A4803F034FFA6
:1012E000194FDFF860A0002544B12046FFF7F0FD5C
:1012F000044618B94FF0FF384FF0FF39FFF754FF9D
:10130000064628B9B5B942464B46504603F050FF51
:101310003546E9E74FF0FF384FF0FF39D2E72B6849
:101320009B691BB100221146284698471035BD42E3
:10133000F5D3E8E7054DFAE7080000008C0C002023
:10134000940C0020F4050020C87A0000A87A000060
:1013500013B5184805F027FC174B1B7873B1EFF352
:101360001184202383F31288BFF36F8FFFF71CFFD4
:1013700084F31188BFF36F8F02B010BD0F4B1B6851
:10138000002BF9D050B900220023CDE900230C48EE
:101390004FF40042002304F099FCEDE70928EBD15B
:1013A000074806F05EF9074802B0BDE8104003F0B8
:1013B000CBBE00BF940C0020790E00208C0C0020C6
:1013C000900A0020F405002010B5064B1B68044667
:1013D00098472146A060044805F0B2F9BDE81040E6
:1013E000FFF7B6BFE40400209C050020044A054B2B
:1013F0009B1AB1EBD30F34BF52F831000020704775
:10140000487A0000A87A00002DE9F04F8FB004AFB1
:10141000C1F34A28B8600D4691467B600C0DB8F1C7
:10142000000F63D0002607F114034FF0040B4FF0B8
:101430000A0AC7F80C80C7E907667E620193CDF8F7
:1014400008B0CDF800A007F11C03F9683246484601
:10145000FFF72AFAB0F5006F03461CD36C468AB03A
:10146000D9F8041004AB2648C3E9050140F2FF7126
:10147000D9611A464FF400711984224B42F8103F8B
:10148000214833464FF41251FFF7BEFFA5462C37D3
:10149000BD46BDE8F08FC0F30A0804F117001844F8
:1014A00020F0070080083B60FFF762FE68F35325D9
:1014B000044690B13B68154AC7E9083600F11001AF
:1014C00007F11403F961CDE900A3CDF808B0F9687C
:1014D00007F11C034846FFF7E7F968F353257B68DB
:1014E000B9682A46204605F09DFBD0E704F11700B5
:1014F00020F007008008FFF73BFE0446EDE700BF41
:10150000857E000004000001607A0000F96B000095
:101510002DE9F04F87B0DDE91279DDE9105A044674
:10152000039193469846BFB1CDF800903B46524692
:1015300010210020CDF81490FEF7E4FFB0F5006F05
:1015400006460AD3184A194840F2FF73022107B031
:10155000BDE8F04F05F0BFBB3E4605F11700304433
:1015600020F0070004F007048008FFF701FE0BF0ED
:10157000070BE40044EA8B1444EA462444EA055489
:10158000054640B13FB1CDF800903B46524631464A
:101590001030FEF7B7FF039943462246284607B0AE
:1015A000BDE8F04F05F03EBBC47E0000607A00004D
:1015B000406820B1034BC01A40F3CF0070474FF092
:1015C000FF307047487A00000EB403B503AB014604
:1015D00053F8042B0448019301F002F802B05DF8BF
:1015E00004EB03B0704700BF396D0000CA0605D494
:1015F0008B064CBF02490349FFF7E6BF704700BFA7
:10160000FD7E0000FC7E00002DE9F04F89B09B4676
:10161000149B06939DF84CA0159B0593169B179E53
:10162000049304460D469046BAF1000F00F09D80E9
:1016300006F48073079305F0D4FA06F00209024617
:1016400000283ED091492046FFF7BEFF0746B9F17A
:10165000000F08D016F0440F35D18D492A46204698
:10166000FFF7B2FF074406F0010353B1894B8A49E3
:1016700053F82A20894B2046002A08BF1A46FFF754
:10168000A3FF06F48073002B49D006F00803002B5B
:1016900063D1B8F1000F66D0814942462046FFF77A
:1016A00093FF0546069B3D44002B6DD1049B002B08
:1016B00073D1F30700F1E48031462046FFF796FF2F
:1016C000D8E00746C3E7774B18680028CAD0764BA6
:1016D0004FF47A791B68B5FBF3F54FF46163B5FB02
:1016E000F0F100FB115509FB05F54FF03C0CB1FB87
:1016F000F3F203FB1211B5FBF0FEB1FBFCF300FBB0
:101700001E550CFB131109FB05F50091B5FBF0F517
:101710006649CDE901E52046FFF756FFA2E706F04E
:101720000803EBB1624B634953F82A202046FFF7C8
:101730004BFF0546B8F1000F05D0594942462046F7
:10174000FFF742FF0544BBF1000FABD05A495A46A0
:101750002046FFF739FF0544A4E74FF0000BE1E70F
:1017600006F00805E6E745469CE7BBF1010F069B3E
:1017700006D1002B64D1049B002B7BD000250CE00C
:10178000002BF8D04D485CE04D48069B4D49224661
:1017900004F0CEFD049B002B68D0DFF82C81DFF82D
:1017A0002C91049F3146102F204628BF1027FFF7A9
:1017B0001DFF4FF0000B5D4545DC059B49461A783F
:1017C0002046FFF701FF4FF0010B1BF0070F03D17D
:1017D00041462046FFF7F8FE5F453BD9059B494649
:1017E00013F80B202046FFF7EFFE0BF1010BBBF1C6
:1017F000100FEAD1364920464FF0000BFFF7E4FE08
:101800005A46059B9A5CA2F120015F2928BF2E222F
:1018100030492046FFF7D8FE0BF1010BBBF1100F4A
:101820001DD01BF0070F03D141462046FFF7CCFE29
:101830005F455A46E5D841462046FFF7C5FEEBE72F
:101840001F485546A1E741462046FFF7BDFE0BF174
:10185000010BB0E720492046FFF7B6FEC5E7059B20
:101860003B440593049BDB1B04939AD1BAF1000F10
:101870007FF41FAF204609B0BDE8F04F05F04FBA26
:10188000064A05492046FFF79FFE15E7047F000042
:10189000087F00000C7B00002D7F0000FF7E000011
:1018A000307F0000A00C00209C0C0020117F000065
:1018B000207B0000347F00003A7F00006F6D000045
:1018C000396D0000E1250000477F00003F7F0000E8
:1018D000497F00004B7F0000457F000073B542F256
:1018E0000F738B4228BF0B4605680F4A044605213B
:1018F000684604F02BFA63680C495B6806460B22C5
:10190000284605F0FEF963683246694628465B685A
:1019100005F0F7F9636806495B681B22284605F065
:10192000F0F902B070BD00BF947D00006A7F000036
:101930004E7F0000074A00210123904206D8064A44
:1019400001B901231360054B1860704740085B0024
:101950000121F2E740420F009C0C0020A00C002067
:10196000014B01221A7070477A0E0020014B0020B3
:1019700019607047B80C00200148FFF7AFBF00BFE7
:10198000507B000010B5064B18680C46FFF758FB5B
:1019900021460346BDE8104002480F22184700BF09
:1019A000B80C0020507B0000F8B5094D094B0A4ED9
:1019B000D5E9004701221A700CB92C60F8BD214608
:1019C00030463A4600F01EF8241A0644F4E700BFF9
:1019D000AC0C00207B0E00207C0E002010B9074BC1
:1019E00018707047064B1B781BB141F2883005F028
:1019F00076BCA420002105F0CFBD00BF7A0E0020E8
:101A00007B0E00202DE9F047DFF878901E4F8046CE
:101A10000E46042499F80050A5B905F053FC32464F
:101A200082464146284603F075F80546504605F0C3
:101A300051FCE5B101233B7099F8003073B9304691
:101A4000BDE8F08732464146002003F063F80546C2
:101A5000EFE72046FFF7C2FF651E2C46002003F08B
:101A60009DF80028EBD03B78002BF2D1E7E73B78DC
:101A7000002BE4D0013C2046FFF7B0FF3B78002B61
:101A8000C8D1DCE77B0E00207A0E0020F8B5074FA6
:101A90000D4604464618B44201D12846F8BD14F854
:101AA000011BBB6801485B689847F4E75478000065
:101AB000014B036000207047947B00002DE9F04744
:101AC000064600AF0C46002936D0E9468AB0D1E977
:101AD0000012A3686D462148A8464FF0050AC5E9E3
:101AE0000501C5E9072348F810AF1D484246002309
:101AF0004FF42151FFF788FCCD46D4E90312636906
:101B0000AD461848C5F810A0C5E90501C5E9072389
:101B10001348002342464FF42151FFF775FCCD4690
:101B2000E369114A0E48012105F0D5F8A3690F4A6F
:101B30000B48012105F0CFF8012E07D1EFF3058303
:101B40000B4A0748103B314605F0C5F821463046A0
:101B500003F054F8BD46BDE8F08700BFC07F000029
:101B6000907A0000EF7F00001E8000002D800000B2
:101B70005B80000030BFFFF7FDBF00BF2DE9F041E3
:101B80000B4EDFF8308006EB0807CC1B05463246CB
:101B90000949204605F081FDA01942460021083C74
:101BA00005F089FD2C6707F10800BDE8F08100BF52
:101BB0000000000004000000C87A0000054B5A69CC
:101BC0009B689A421FBF044A536843F08053536096
:101BD000704700BF480E002000ED00E070B5294CB2
:101BE00006460D462848294905F048F9A36AD90454
:101BF0003CD52548264905F041F91720A36A1A0566
:101C000004D52148234905F039F918201D4CA36A51
:101C10009B0512D51C48204905F030F9A36BA26A38
:101C2000100409D51D4A1848012105F054F81EB1C9
:101C3000A36A23F40043A3621920124CA36A590536
:101C400004D51148164905F019F91A20A36ADA05D6
:101C50000ED50D48134905F011F91B20094A936A66
:101C600043F47F43936200232B7070BD1620C5E7B9
:101C7000A36A9B04F2D504480B4905F0FFF81C2029
:101C8000ECE700BF00ED00E0907A00006E800000FD
:101C90008480000095800000A8800000C1800000C2
:101CA000D6800000F18000000981000010B5204CB2
:101CB0002049214805F0E2F8A36A990136D51E486B
:101CC0001E4905F0DBF81E20A36ADA0104D51A4884
:101CD0001B4905F0D3F81F20154CA36A1B0304D53C
:101CE0001548184905F0CAF82120A36A590304D5FC
:101CF0001148154905F0C2F822200D4CA36A9A0339
:101D000004D50D48114905F0B9F82320A36ADB0377
:101D100004D509480E4905F0B1F82420044A936A15
:101D20006FEA03436FEA1343936210BD1D20CBE7B4
:101D300000ED00E038810000907A00005081000042
:101D4000638100007D8100009B810000C081000054
:101D5000DA8100002DE9F843364D80468946364841
:101D60003649174605F08AF8AB6ADE0627D53449AE
:101D7000314805F083F81124AB6A1D0704D53149B9
:101D80002D4805F07BF812242A4DAB6A980718D528
:101D90002D49294805F072F86E6BAB6A190646D5D5
:101DA0002A4A25483346012104F095FFB9F1000F76
:101DB00003D0AB6A23F08003AB62132403E010244A
:101DC000DAE76FF015061B4DAB6ADA0704D5204938
:101DD000194805F053F81424AB6A9B0604D51D4935
:101DE000154805F04BF81524124B9A6AD50602D413
:101DF0009A6A90070AD55B68190507D541463046AF
:101E000000F022FA10B180F309880224094B9A6A83
:101E1000920642BF5A6A22F400525A629A6A42F00B
:101E2000FF029A6200233B702046BDE8F8836FF002
:101E30001506C2E700ED00E0907A00000582000080
:101E40001B820000958000004E8200006682000028
:101E50007C820000098100002DE9F041664B8AB0C8
:101E6000D3F8048000AF0446C8F30805002686F3C3
:101E70001188BFF36F8F02F07F43B3F17F4F07D11B
:101E800002F00C03082B12D15C495D4804F0F6FF08
:101E9000002634460023FB71EB1E092B00F28A80DA
:101EA000DFE803F00A80837C8888888888861007AA
:101EB0004CBF0C460126EDE7524951484E4D04F007
:101EC000DDFF0023FB71EB6A9A0705D54E494C48AC
:101ED00004F0D4FF002332E0EB6A002B01DA4B4917
:101EE000F5E7EB6A5B00F5D54949454804F0C6FFC4
:101EF0006B69A26943F480736B61BFF34F8FBFF3CB
:101F00006F8F6B6932F8022C23F480736B61BFF31F
:101F10004F8FBFF36F8F4DF602739A4208D0AB6AB2
:101F2000DBB273B3FA1D01212046FFF713FF37E040
:101F30002368384A3248012104F0CDFE2368FA793B
:101F4000DAB907F1080504F1200C206861682A4617
:101F500003C2083464451546F7D17A6A002E45D08D
:101F6000C2F3080121B96FEA52226FEA42227A6273
:101F700007F108011846FFF7A1FD2837BD46BDE867
:101F8000F081AB6A13F47F4F04D0F91D0120FFF7F5
:101F900025FE05E0AB6AB3F5803F9BD3FFF786FED5
:101FA0000346CCE7FA1D0021BEE7F91D0020EEE74D
:101FB00019498CE7194A1A4B18F4F87FE8468AB099
:101FC00018BF13466A461749C2E905134FF4007358
:101FD0001384103D144BD56142F8103F084800238C
:101FE0004FF41151FFF710FAC54673E722F4FF7260
:101FF00022F00102BBE700BF00ED00E0C982000053
:10200000907A0000F48200000B8300002C83000013
:102010003A8300005983000075830000B0820000FD
:102020009B8200009983000004000001044B5A6960
:1020300042F010025A615A6922F008025A61704750
:1020400000ED00E0EFF30880EFF3098101B572467F
:10205000FFF702FF01BD00BF01F012FD202080F359
:10206000118808484FF40461401880F30988EFF3A1
:1020700014800221084380F31488BFF36F8F00F0AF
:10208000A3F8000000120020084B9B6883420BD18C
:10209000EFF3058343B1064B5A6842F080525A6011
:1020A0005A6A22F400425A6203F048BB480E0020EC
:1020B00000ED00E014498A684FF030001044EFF35F
:1020C000098C80E8F01F202080F31288BFF36F8F07
:1020D0000E4F4FF000664A698A603E60106F0C4CEC
:1020E0002060506F0023536780F3118804B51046B9
:1020F00000F00EF9BDE8044002F1300090E8F01F56
:102100008CF3098870470000480E002004ED00E0C1
:10211000E00C00201EF0040F0CBFEFF30880EFF37B
:102120000980816911F8021C0229FFD001B57246AD
:1021300004F099FE01BD00BF40B2002807DB044A4D
:102140004109012300F01F00834042F8213070470D
:1021500000E100E040B200280CDB4309064900F032
:102160001F0020330122824041F82320BFF34F8F0C
:10217000BFF36F8F704700BF00E100E0054B4209DD
:1021800000F01F0053F82220012303FA00F0104052
:10219000704700BF00E100E040B20028A8BF00F196
:1021A000604001F10101B8BF064B4FEA4111ACBFDD
:1021B00000F5614000F00F00C9B2B4BF195480F8B7
:1021C0000013704714ED00E00F4A08B50F4B22F0E2
:1021D0007F029A60BFF34F8FBFF36F8FD3F88820D1
:1021E00022F47002C3F88820EFF3148323F0040371
:1021F00083F31488BFF36F8F02F0ECFD03F0C0FB94
:1022000000F05CF802F02AFE0000000000ED00E0A3
:1022100042F8203C009B42F81C3C0A49019B42F8D2
:10222000183C029B42F8143C21F001014FF08073EE
:1022300042F8043C42F8081C0023203A0265436738
:10224000704700BF810C0000094A0346906870B1D6
:1022500013F1160F006E05D0A0F140029A4205D886
:10226000834203D2814228BF00207047002070477C
:10227000480E002008B51546094A0A4B9060026FC7
:102280001A600E4600F044F82C4686F309880020B8
:10229000054B98472046002100220023034C20478D
:1022A000480E0020E00C00208D6E0000810C000024
:1022B000014B10221A61704700ED00E00448002332
:1022C0002021C2180133302B82F80013F9D1704756
:1022D00000E100E008B5EFF30583064A103B02EB8E
:1022E000C30152F8330049688847BDE80840FFF74A
:1022F00065BC00BF7C780000024B034A0348012103
:1023000000F08AB80000042000000020947B000048
:10231000026E054B403A1A60044A4021C3E901129B
:102320001846012100F082B8E40C002000000B15D3
:1023300008B503461048D0F89020C2F30722013AAE
:10234000934207D90D480E4A012104F0C4FC6FF0F6
:10235000150008BDC0F898300A6822F01F021A4321
:1023600042F01002C0F89C208A6842F00102C0F8D6
:10237000A0201846EDE700BF00ED00E0787A0000ED
:10238000B0830000F0B50E4685B01F460446002518
:10239000B5420DDA606810B397B1431E18420AD0F7
:1023A000104A11482B46012104F095FC6FF01502EC
:1023B000104605B0F0BD1F28F2D921680B42EFD1BD
:1023C0002368019304F085FDA36801A90343D0B2FB
:1023D0000393FFF7ADFF10F1160FE7D0421C013554
:1023E0000C34D5E7D6830000787A0000044B052230
:1023F000C3F89420BFF34F8FBFF36F8F704700BFB8
:1024000000ED00E0BFF35F8F024B0022C3F8942081
:10241000704700BF00ED00E010B5034C01232278A7
:10242000FFF7B0FF207010BD8D0E002008B50B4ADD
:1024300000231278FFF7A6FF10F1160F07D0084A05
:102440000021D2F89030C3F30723984200DB08BD87
:10245000C2F89800C2F8A0100130F2E78D0E0020FB
:1024600000ED00E02DE9F04357485849D0F890308E
:102470000D68C3F307239D4285B000F2A180FFF7EA
:10248000C1FF49680022954201F10C011AD1504C5C
:10249000504F25706846FFF70BFBDFF83C81DFF8F3
:1024A0003C9106460025AE421FD1237846490020C4
:1024B000D1F89020C2F3072293427BDBFFF796FF0F
:1024C00000204CE0C0F8982051F80C3C23F01F038A
:1024D000134343F01003C0F89C3051F8043C43F020
:1024E0000103C0F8A0300132CDE7009800EB0511E0
:1024F0004FEA051CCB683B40B3F5000F44D00AD827
:10250000B3F5001F2ED0B3F5800F34D0B3F5801F84
:1025100010D00135C7E7B3F1807F3ED0B3F1007F23
:10252000F7D150F80C3088684A6804F0D2FC40F4C7
:10253000802009E050F80C3088684A6804F0C9FC33
:1025400040F0885040F43020039001A92078CDE974
:102550000123FFF7EDFE002828DA6FF0150005B023
:10256000BDE8F08350F80C3088684A6804F0B1FC8C
:1025700040EA0800E8E750F80C3088684A6804F040
:10258000A8FC40EA0900DFE750F80C3088684A6888
:1025900004F09FFC40F08270D6E750F80C30886859
:1025A0004A6804F096FC40F08870CDE72378013348
:1025B0002370AEE7C1F89830C1F8A000013377E787
:1025C0004FF0FF30CBE700BF00ED00E0A07B000044
:1025D0008D0E00200000F0FF00000811000002072F
:1025E000F0B587B007460E46144600211022684613
:1025F0001D4605F060F802238DF802302A46054B8F
:10260000019321466846CDE9047603F0CBFB07B081
:10261000F0BD00BFF36E000008B5024B1B68984781
:10262000002008BDF00C0020034B044A186093788A
:1026300043F0020393707047F00C0020F004002078
:1026400008B50649064821F00701C1F1005202F51C
:10265000802203F030FE002008BD00BF0752022098
:10266000F40C00200E4A0123C2F840354FF080429E
:102670004FF08051C2F87835D1F83001082808D1E0
:10268000D1F83411052904D80648415C09B1C2F8D3
:1026900038364FF080430122C3F880250020704770
:1026A00000E001401F84000020B1034B800143F093
:1026B00001031847704700BFE07A000037B50446B1
:1026C000002201211D20FFF767FD6368DD6901AA73
:1026D0000021284604F0F2FC002816DB019B2A6842
:1026E0001979186800F0D6FD00280EDB0848094B60
:1026F00040F8243B08491023042204F096FE0020F1
:10270000246900F079FB6060002003B030BD00BF99
:10271000000D0020347C0000500D00202DE9F04118
:102720000669069C1D4696F84C3017469A0708D451
:102730001448154A012104F0C5FA6FF00400BDE801
:10274000F081631C06F1240818D04FF4004C24EAF1
:10275000E47440F2E73000214FF47A720023C4FBA6
:102760000C01FDF7CDFC02460B463946404602F00F
:1027700089FC0028E3D1336A2B60E0E74FF0FF3299
:102780001346F2E7587A0000298400002DE9F04F43
:1027900005694368D1F810808DB00C46029395F816
:1027A0004D3003F0FF064BB17A487B4A012104F01B
:1027B00089FA6FF00F000DB0BDE8F08F91F824E0BA
:1027C00091F82630BEF1010F0FD1012BC1E9076648
:1027D00081F825E081F827E017D0704A6D48012183
:1027E00004F070FA6FF01500E5E7022281F8252069
:1027F00001220E6293424FF0100681F82720CE612D
:10280000EBD10EF1FF339342E7D8D4F81490B145E1
:1028100002D0B9F1010FE0D1A369002BDDD1D8F8C6
:10282000003013B198F8043073B995F84C3099071B
:1028300008D5286802F000F895F84C306FF3410392
:1028400085F84C300020B6E7102B01D0544AC5E77C
:10285000029B03F1040CBCE80F0006AF0FC79CE815
:1028600003000EF1FF32D2F1000E4EEB020E87E8AC
:102870000300B9EB060923684A4E059318BF4FF0D1
:1028800001098DF819908DF818E04FF001094FF00B
:10289000FF3332780492D8F800C0434A002710680A
:1028A000059988425CD36168884212D927B1039A9E
:1028B000099272788DF82B20FBB1B9F1010F06F166
:1028C000020603D0013318D1384A87E74FF00209D6
:1028D000DFE70499B0FBF1F18C4535D8A1EB0C0E84
:1028E0009E453BD253680393BEF1000F32D109934A
:1028F00073788DF82B3082468B462D4A2548CDF8CB
:1029000000B05346032104F0F0F995F84C309B07D2
:1029100008D5286801F090FF95F84C306FF341031B
:1029200085F84C30029B28681A6806A901F060FF00
:10293000204A9042034618D016481F4A012104F04D
:10294000CAF96FF0040036E7ACEB010E9E4505D2E4
:102950005368039382468B46734601278C45A5D363
:10296000164908328A429AD1A0E7B8F806302B629D
:10297000D8F80830AB61029B95F84C2093F82030D2
:10298000003B18BF012343F0020322F0030213436C
:1029900056E700BF587A0000428400006D840000B2
:1029A00096840000CF850000C07B0000E584000015
:1029B000B88400000000AD0B13850000F07B000020
:1029C00010B50446006801F055FF0C4A90420346DA
:1029D00011D00B4A0B48012104F07DF994F84C30DA
:1029E000DB0702D5606804F02BF8002384F84D3033
:1029F0006FF0040010BD0020FCE700BF0000AD0B2D
:102A000034850000587A000070B50B460269032B2C
:102A100045D8DFE803F0020E020E92F84D300BB9F4
:102A2000002070BD0123106882F84E3001F096FF3F
:102A3000F6E792F84C30990707D41D4A1D4801214A
:102A400004F040F96FF00400EBE792F84D3003F02A
:102A5000FF05002BE4D182F84E50046994F84C3005
:102A60000126DB0784F84D6013D5134BE360032385
:102A700023616068656104F1080103F08AFF031EA9
:102A8000CEDA84F84D500D4A0A48314604F023F955
:102A9000D8E72046FFF794FF00EAE070C1E7054859
:102AA000074A012104F017F96FF01500B9E700BFDC
:102AB00029840000587A0000096F0000508500004A
:102AC0006C85000070B506783F4C054636B994F821
:102AD0004E206B6862BB002B61D170BD0023A069E2
:102AE000002204F11C0102F047FA031E13DA374AF0
:102AF0003748012104F0EFF894F84E206B68002A63
:102B00003CD1002B4CD1012384F84E302068BDE825
:102B1000704001F023BF226AE1692068C2F34F02CE
:102B200001F0CEFE2B4A90420346D0D02A4ADFE77E
:102B3000A3B10026D4E9060104F028FC94F84D3036
:102B40004BB1002384F84D3094F84C30DB0702D5AC
:102B5000606803F075FF002ED5D1BEE794F84D30C4
:102B6000002BBAD0002384F84D3094F84C30DA07AB
:102B7000B3D56068BDE8704003F062BF002BD9D1C7
:102B800094F84D30002BBED0002384F84D3094F8DB
:102B90004C30D907B7D5606803F052FFB3E7002681
:102BA0000E490022002301F1080002F013FA002868
:102BB000D1DA0B4A0648012104F084F8D4E9060171
:102BC00004F0E4FB9FE700BF000D002080850000BB
:102BD000587A00000000AD0B9E8500001C0D0020FF
:102BE000BB850000084B70B5C31A0D4607499B1002
:102BF000044659430648402204F09AF92B46014600
:102C00002046BDE870401847A40D0020B76DDBB624
:102C10001878000073B50C4C0C4A4023041B009339
:102C20000D460B460A49A41061430646094804F0C4
:102C3000AAF9011E05DA30462B4602B0BDE8704005
:102C4000184702B070BD00BFA40D0020EF6F000058
:102C5000B76DDBB61878000010B5EFF311842023B0
:102C600083F31288BFF36F8F074A136823F00201C2
:102C7000DB07116002D4012004F09DFA84F311886F
:102C8000BFF36F8F10BD00BFF40D0020002270B5A0
:102C9000012104461046FFF77FFA0F4801F07AF849
:102CA0000E4B984215D101F085F826690C49304643
:102CB00003F05CFE00280BDB01253564246908491C
:102CC00004F11C0003F052FE002801DBE564002043
:102CD00070BD6FF00400FBE7DD2D00000000AD0BC0
:102CE000487C00001FB500220123CDE90223094AD8
:102CF000CDF800D06B46CDF804D004F071F900286F
:102D000005DB4FF480420023684602F051FA05B01B
:102D10005DF804FB0D70000030B4104B0C2202FB78
:102D2000003301460020D3E90E529863EFF311807F
:102D3000202484F31288BFF36F8F1C6C04F0C0044E
:102D400044F002041C6480F31188BFF36F8F1DB13F
:102D50002B46034830BC184730BC7047A40D0020F8
:102D60001878000010B4EFF31182202383F3128847
:102D7000BFF36F8F1748016841F002040460C80771
:102D800007D482F31188BFF36F8F012010BC01F0CC
:102D900023B84FF08041D1F80C04D1F80C14C907C6
:102DA000EFD5EFF3118083F31288BFF36F8F0A49D9
:102DB0000B6C03F0C00343F002030B6480F3118833
:102DC000BFF36F8F82F31188BFF36F8F002010BCA9
:102DD000FFF7A2BFF40D0020A40D002010B10128C0
:102DE00004D07047034B1B6C5B0701D1FFF794BF06
:102DF000704700BFA40D0020024AC3B21C2003FB91
:102E000000207047A40D00202DE9F0413849BFF3A0
:102E10005B8F0746012251E8003F41E8002000286F
:102E2000F9D1BFF35B8F33B9324933484B60CB6084
:102E30008A6003F0AEFD7B1E012B2BD8012F07D13A
:102E40004FF08043D3F81C3403F00303012B21D04F
:102E500004F006FB0546F8B9284B1B78E3B14FF0A8
:102E600080430222C3F808230646DFF894804FF01F
:102E70008044D4F81824D4F81834D20315D503F0BC
:102E80000303012B01D0012F0FD155B386F3118815
:102E9000BFF36F8FBDE8F081EFF31186202383F33A
:102EA0001288BFF36F8F0125DFE7ADB1304604F024
:102EB00001F8D4F81835002BDBD1D4F80421002A0E
:102EC000D7D0C4F80431D4F804310123C4F818353C
:102ED000C8F88031A360CCE70021212004F05CFB1E
:102EE000E7E74FF080430222C3F80423D2E700BF94
:102EF000A00D0020900D0020C00D0020900E00209D
:102F000000E100E008B5074804F0EEF938B10648E2
:102F1000FFF78AFB0448FDF7ADFE002008BD6FF007
:102F20001200FBE7547800002D2F00000A2838B566
:102F3000074D044604D1AB680D215B6828469847CD
:102F4000AB6803485B68E1B29847204638BD00BFD4
:102F500054780000F0B54068057B01F01F0444EA96
:102F60004514056987B0002D64D0B2F5001F00F14B
:102F7000100506D12146284604F09DF9002007B02F
:102F8000F0BD01AE0027B2F5800F0197776039D10F
:102F9000B3F1007F14BF052304238DF80430002310
:102FA000CDE904630393836823FA01F111F0010171
:102FB0001AD1B2F1A07F17D104F01F03620903F503
:102FC000E0732AD0012A3BD11F4A52F82330DB0795
:102FD0000AD40DF1030632462146284601F0DAF9FB
:102FE0001A4B98421CD0029603AA2146284601F0AB
:102FF00093F8174B984220D101222146284601F030
:103000002DFABBE7B3F1C06F05D0B3F1007F14BF59
:1030100001230223C1E70323BFE74FF0A042D4E717
:103020003146284601F014FA094B9842DBD06FF084
:103030000B00A4E76FF08500A1E76FF015009EE795
:1030400051F82330FFDE00BF000300500400AD0B39
:103050000000AD0B38B545682B69B3B11035284673
:1030600001F0E6F9044680B90146284601F0ACF9C2
:10307000084B98420BD108492246284601F084F9B2
:10308000224605210620FFF787F8002038BD6FF0A3
:103090000400FBE70000AD0B9D300000420970B555
:1030A000034602D0012A17D070BD0D4E3269516817
:1030B0000029F9D003F01F0301250C689D40002969
:1030C000F2D08A682A4002D04B68304698472CB12B
:1030D000236821461C46F2E7024EE7E72346F8E75D
:1030E000407800002C7800002DE9F043466840F25B
:1030F0000635D006337B87B002EA050554BFC2F31C
:103100004010032001F01F07B5F5837F144647EAFE
:1031100043178DF8030045D00FD8062D18D007D8D7
:10312000B5B1022D40D06FF0150007B0BDE8F083B7
:10313000B5F5807FF7D101250AE040F202229542E1
:1031400034D0B5F5407F33D0B5F5007FEBD1022503
:103150000123220303FA01F12CD57368C3F8081583
:10316000326982BB07F01F037F0929D0012F77D175
:103170003E4A02EB830284F48033D2F80017C3F393
:103180000043C4F3404444EA430421F4E16144EAC7
:10319000800421F0070144EA05230B43C2F80037FD
:1031A0000020C2E70725D3E70425D1E70525CFE7AF
:1031B0000325CDE7630344BF7368C3F80C15CFE75D
:1031C0004FF0A042D5E710360DF1020239463046E5
:1031D00001F0E0F814F4403F80460CD13946304607
:1031E00004F067F8224B9845DAD19DF8021030467A
:1031F00001F028F9D4E701AB4FF0000903AA3946E2
:103200003046CDE90439CDE90199CDF80C9000F0B4
:1032100083FF174B984286D114F4003315D09DF8E4
:1032200003308DF80E3084F48034C4F300444B46F0
:1032300003AA394630468DF80C508DF80D4001F048
:1032400025F80B4B9842CDD06DE7CDE9043303AAA6
:103250000DF1030339463046039300F05DFFF0E7BC
:1032600003F5E07352F82330FFDE00BF0003005087
:103270000000AD0B036803F01F025B09026004D07D
:10328000012B034818BF002070474FF0A040704743
:10329000000300502DE9F04FDFF8A491DFF8A4A15E
:1032A00085B01546834600EB810140F2FF18594571
:1032B00003D1002005B0BDE8F08FDBF800305E04DC
:1032C000C3F3C322C3F3080400F1B3801B0E19F843
:1032D0000270444508BF4FF0FF34222B00F2AC804F
:1032E000DFE803F01222282B2E352BAAAAAAAA4522
:1032F00072AAAAAAAAAAAAAA75787B86898CAAAA5F
:10330000AA8F96999C9FA200C5F80C45621C1BD001
:1033100003A80394FFF7AEFF039B012606FA03F30D
:10332000C0F8083532462BE0C5F81445631C0BD0B5
:103330000026F7E7C5F80845E8E7C5F81045F5E7C2
:10334000601CC5F8084572D10BF1040BAFE7C5F856
:103350000C45621CF8D0012603A80394FFF78AFFEE
:10336000039B012202FA03F3C0F80C3508E0C5F80C
:103370000845002FDAD1661CE6D000263246062723
:10338000DBF80030019303F40040002818BF00224E
:1033900003A8009218BF01260394FFF76BFF039C5C
:1033A000019B009A00EB8400C3F3412CD0F8004746
:1033B0003B0243EA8C03134304EA0A04234343EA2F
:1033C0004603C0F80037BFE7C5F80C45D1E7C5F89C
:1033D0004045BEE7C5F84445A8E7C5F86045601C10
:1033E000DBF80030B0D0C3F30043002BB3D08FE73D
:1033F000C5F86445F3E7C5F86845F0E7C5F86C45DE
:10340000EDE7C5F82445631C9ED000220126B7E7EE
:10341000C5F828457AE7C5F83045F4E7C5F83445DE
:10342000F1E7C5F83845EEE7C5F83C456EE70026FC
:1034300092E76FF015003DE76FF085003AE700BFB7
:1034400033860000F0F8FCFF2DE9F04104464768A0
:103450000D4604F005F84FF0200888B9264B1B787C
:1034600073B16426606803F056FEF0B9012003F0E2
:1034700094FE013EF6D10021212004F08DF8F0E702
:10348000EFF31186314688F31288BFF36F8F6068BF
:1034900003F041FEA8B986F31188BFF36F8FEFE701
:1034A00086F31188BFF36F8FE5E7EFF3118631469E
:1034B00088F31288BFF36F8F606803F02CFE00283A
:1034C000EED0BB691D706368BA691B680020C3F841
:1034D00044250122C3F84825C3F82001D3F8204130
:1034E000C3F85801D3F858019A6081F31188BFF3EB
:1034F0006F8FBDE8F08100BF900E0020F7B5054644
:10350000002201210220FEF747FE0220FEF714FEF2
:103510006A6811681369C1F82435137D507D927D66
:1035200003431343C1F86C356E68D6E9004313F0CA
:10353000010350D02F6907F1080003F03AFE334B26
:10354000984208D03248334A012103F0BBFB6FF0A8
:10355000040003B0F0BD387A04F10C0204F5907158
:1035600003F01DFE387A012707FA00F000F0AAFBED
:103570000823C4F80035B369C4F844350023C4F8FF
:103580004835A760D4F85831002BFBD00021C4F88F
:1035900000156B68DC6801AA204603F08FFD002847
:1035A00005DB019B226819791868FFF773FE6A68CA
:1035B00013680821C3F80015117A51B9D269C3F80C
:1035C00034250122C3F83825C3F81011D3F810119F
:1035D0001A600020BDE70822C4F80025B269C4F8CB
:1035E0004425C4F848350123A360D4F82031002BCA
:1035F000FBD00023C4F82031D4F820310123E3604C
:103600004FF48073C4F80433BCE700BF0000AD0B77
:10361000A07A00003B86000070B5012383400E4A6B
:10362000BFF35B8FDC4352E8001F01EA040542E868
:103630000056002EF7D1BFF35B8F4FF480328240EB
:103640000648C0F80823BFF35F8FBFF36F8F0B42AC
:1036500014BF0120002070BD200E0020001001408A
:1036600070B40E49D1E90034D01AC31844F10004F3
:1036700022F07F46C1E90034A6F50013B3F5400FF0
:1036800009D2074B1B681A0A1B069C19054B42F10D
:103690000005C3E9004570BC02F032BAD80A002028
:1036A000240E0020E00A002011B3BFF35B8F01233A
:1036B000104A834052E800CF4CEA030C42E800C1B4
:1036C0000029F7D1BFF35B8F0B4A4FF4803383405F
:1036D000C2F80433094BBFF35B8F1B68BFF35B8FEA
:1036E000C340DB0742BF064B4FF40032C3F8002152
:1036F000704700BF200E0020001001401C0E00206B
:1037000000E100E00D4B1868010A0006BFF35F8F6F
:103710000B4BD3F80435181841F10001B3F5801FA5
:103720000AD2084BD3E90023904271EB030303D282
:1037300010F1807041F10001704700BF240E00209D
:1037400000100140E00A00202DE9F04F85B0164638
:103750001F469DF840A00446FFF75EFF0190FFF76B
:10376000D1FFB04271EB070354D23E4B301A67EBE6
:103770000101984271F100014FD23B4B03EB04135E
:10378000D3E902239F4208BF96425ED037494FF4E7
:10379000803804F1500508FA04F8AD00C1F84883F8
:1037A0002046ADB203F0E8FC26F07F4B05F18045E2
:1037B00004F5A87305F58835DC464FF0030902933C
:1037C000029A2CF07F4341F82230C1F84483D1F8AB
:1037D0000435274A6FF00200C01A604420F07F4091
:1037E000904232D9286868B1D1F804350393A3EB2D
:1037F0000B0020F07F40B0F5000F26D9204603F0E3
:10380000BBFC039BBAF1000F07D109EB030C09F1D4
:103810000109D5E7BAF1000F09D06FF01505204670
:103820000199FFF741FF284605B0BDE8F08F01235D
:10383000104ABFF35B8FA34052E8000F184342E8E1
:1038400000010029F8D1BFF35B8F07490E982301CF
:1038500001EB0412C8500F9B5360C2E902670025B8
:10386000DDE700BF01008000C80A00200010014011
:10387000FDFF7F001C0E00207FB51C4C1C4BC4F8C4
:103880000833C4F848331B4B00254FF0FF304FF08E
:10389000FF31C4F80855C3E902014FF48033C4F87E
:1038A0000433154B02264FF400320121C4F804639F
:1038B0001120C3F880212A46FEF76EFC1120FEF786
:1038C0003BFC0E4A0123A360236013600C4B0D4A9E
:1038D0000093CDE9015500232846FFF735FF304618
:1038E000FFF792FA284604B070BD00BF00100140F7
:1038F00003000F00C80A002000E100E0200E0020B5
:1039000061360000FFFF7F002DE9F7432F4CD4F80C
:10391000043399070BD5D4F8043143B12C4A002362
:10392000C4F80431D4F80431136801331360D4F8B7
:103930000433DA0329D5BFF35B8F264B53E8002FFE
:1039400022F0010143E800100028F7D1BFF35B8F9C
:10395000D30702D4D4F84031BBB10025C4F840519C
:10396000D4F84031FFF7CEFEEFF31182202383F32A
:103970001288BFF36F8F184BD3E90267B042B94189
:1039800006D282F31188BFF36F8F03B0BDE8F083D6
:103990004FF0FF384FF0FF39C3E90289D3E9001037
:1039A0001D604FF48033C4F84833C4F84051D4F854
:1039B000403182F31188BFF36F8F0029E5D000906A
:1039C00032463B4628468847DFE700BF00100140EB
:1039D000240E00201C0E0020C80A002030B5431C15
:1039E000124C85B005D08442A8BF0446012CB8BF54
:1039F0000124FFF787FE0E4B0C4DD3E90013401A4C
:103A0000B0F5000F10D22218AA4228BF2A46521839
:103A10004FF0000007490091CDE9010043F1000398
:103A2000FFF792FE05B030BD2A46F0E7FFFF7F00AA
:103A3000D80A00206136000008B5FFF763FE024B8C
:103A40001B68C01A08BD00BFD80A00204FF0805381
:103A5000D3F83021082A06D1D3F83431052B02D807
:103A6000024AD05C70470020704700BF7E8600008D
:103A7000024AD2F80034002BFBD0704700E001402E
:103A800010B54FF08053D3F83021082A4ED14FF0B3
:103A900080420021C2F80C11C2F81011C2F838158A
:103AA00002F54042D3F80414C2F82015D3F80814E4
:103AB000C2F82415D3F80C14C2F82815D3F8101442
:103AC000C2F82C15D3F81414C2F83015D3F8181412
:103AD000C2F83415D3F81C14C2F84015D3F82014DA
:103AE000C2F84415D3F82414C2F84815D3F82814A2
:103AF000C2F84C15D3F82C14C2F85015D3F8301472
:103B0000C2F85415D3F83414C2F86015D3F8381439
:103B1000C2F86415D3F83C14C2F86815D3F8401401
:103B2000C2F86C15D3F84434C2F87035FFF78EFF35
:103B300018B13A4B3A4AC3F88C26FFF787FF18B101
:103B4000384BFB22C3F81825FFF780FF70B14FF008
:103B500080414FF08053D1F8E42ED3F8583222F050
:103B60000F0203F00F031343C1F8E43EFFF76EFFAB
:103B700020B12D4B4FF40072C3F840264FF0805314
:103B8000D3F83031082B1AD14FF08043D3F80024FA
:103B9000D20744BF6FF00102C3F800244FF08053F6
:103BA000D3F83431052B02D8204AD35C3BB14FF017
:103BB0001023D3F808224FF08043C3F858254FF064
:103BC0001023D3F80022002A03DBD3F80432002BA1
:103BD00022DA174901234FF01020C1F804351224CE
:103BE000FFF746FFC0F80042FFF742FFC0F804426B
:103BF000FFF73EFF0023C1F80435FFF739FFBFF39D
:103C00004F8F0C490C4BCA6802F4E0621343CB603F
:103C1000BFF34F8F00BFFDE710BD00BF0050004055
:103C20004881030000F000400090024078860000C8
:103C300000E0014000ED00E00400FA0530B5046842
:103C4000CCB1BFF35B8FB4FA84F3C3F11F03DBB2D3
:103C500001229A4024EA020250E8005FA54204D102
:103C600040E8002CBCF1000FF6D1BFF35B8FE6D12A
:103C700002480B7030BD0248FCE700BF0000AD0BEE
:103C80000200AD0B10B50368CB40DB0714D4012351
:103C90008B400268BFF35B8F43EA020150E8004F9C
:103CA000944204D140E8001CBCF1000FF6D1BFF3F0
:103CB0005B8FEED1014810BD0148FCE70000AD0B61
:103CC0000400AD0B014BC3F80405704700F0014040
:103CD000F7B50546F8B101281BD104224FF48073D3
:103CE00001464FF0804003440244C0F80813002608
:103CF000012111601E608D421B688DF8071008BFFE
:103D00000DF1070642F210744FF0804745B1012DC6
:103D100028D003B0F0BD0C224FF482730221E0E7FB
:103D2000D7F8183403F480333EB9002BF1D00120CA
:103D300003F033FA013CF3D1EBE7D7F8182402F093
:103D400003023260002BE4D09DF80700012803D164
:103D500003F023FA013CD9D1012DDAD10C4B00221A
:103D60005A71D6E7D7F80C3403F480333EB9002BF0
:103D7000F4D0012003F011FA013CF3D1EEE7D7F8BB
:103D80000C2402F001023270002BDDD1E6E700BF07
:103D9000280E0020044B1A7922B9012218609A805B
:103DA0000248704702487047280E00200000AD0B03
:103DB0000C00AD0B08B5074B1B682BB10020FEF7BC
:103DC000DDF908B9FEF7B8F94FF080430022C3F8D7
:103DD000182508BD280E002010B510B1012843D0C9
:103DE00010BD4FF08043D3F81814D3F81824C8033B
:103DF00021D502F00303012B04D013B10020FFF7FB
:103E000067FF00234FF080420220C2F818350822D5
:103E10004FF4827303F180430021196002F1804264
:103E20001C6801241460154A12680AB34FF08043DD
:103E3000C3F80403D4E7D3F81424D107E1D5D3F8A9
:103E40001C249207DAD40D4A12681AB10222C3F870
:103E50000423C5E7D3F80421002AFBD00022C3F8CD
:103E60000421D3F80431BBE700224FF48073D1E77B
:103E70001A68002AFCD019601B68B1E7280E0020E0
:103E800010B54FF08043D3F800216AB10022C3F887
:103E90000021D3F800210122C3F80823114B5879DF
:103EA00010B95A711B6898474FF08043D3F804212A
:103EB00072B10022C3F80421D3F80421D3F81824E6
:103EC000D3F81824920704D10122C3F818259A6068
:103ED00010BD0222C3F80823024BBDE810401B6846
:103EE00001201847280E0020036803F01F025B0919
:103EF000026004D0012B034818BF002070474FF028
:103F0000A040704700030050034A430900F01F001F
:103F1000D35C1844C0B270478486000070B5054673
:103F2000FFF7F2FF0C4C08300E4634F81030DA057B
:103F300008D5C3F3432304EBC302284654F83330B7
:103F400052689847A3682BB1E26831462846BDE81D
:103F50007040184770BD00BF0005002008B5FFF78E
:103F6000D3FF034B083033F81000400B08BD00BFEF
:103F70000005002008B5FFF7C7FF034B083033F8F2
:103F80001000C0F3400008BD0005002008B5FFF791
:103F9000BBFF034B083033F81000C0F3401008BDDE
:103FA00000050020034611F0010010B5CCB20DD180
:103FB000A207C4F3400012D5094AD2F82005586080
:103FC000C2F82005003818BF012008E04FF0A041DA
:103FD000D1F820251A60C1F82025002AE8D010BDAC
:103FE0000003005010B5FFF78FFF124A083032F877
:103FF0001030D9051CD5C3F3432123F4F85322F81C
:10400000103002F10E04002034F8023F13F4807FD8
:1040100003D0C3F3432399420AD001303028F3D1AF
:10402000002342F831300448BDE81040FFF72ABEB3
:1040300010BD00BF0005002078050020F0B5054642
:1040400000200446012607468C420BD1114BD3F8C1
:104050007C2132B10022C3F87C21D3F87C3140F0BE
:104060000040F0BDE3B29B0003F580729B0806FAA6
:1040700003F31D420BD002F1804202F5C042D2F898
:1040800000C0BCF1000F02D0176012681843013461
:10409000DAE700BF00600040F7B506460846FFF7C4
:1040A00033FF194F00F108050C4637F81530DB07D0
:1040B00027D5304603F0D9F82046FFF767FF40B117
:1040C0002046FFF74BFF316800F5A270002341F84E
:1040D00020302046FFF786FF002301A827F815307F
:1040E0000194FFF701FF019B00EB8300074BD0F821
:1040F0000027134043F00203C0F80037044803B020
:10410000F0BD0448FBE700BF00050020F0F8FCFF0D
:104110000000AD0B0400AD0B2DE9FF4116468046B3
:104120000846FFF7F1FE0D463168044609B32846FC
:10413000FFF720FF18B12846FFF728FF10BB002328
:10414000CDE900338DF80E308DF80F300DF10F02F0
:104150000B4628460DF10E0103F02FF8474A04F1F3
:10416000080132F8113023F0020343F0010322F872
:104170001130736863B328461F785968FFF7FAFE59
:1041800010B1D1B13E4826E03C4A04F1080032F8B3
:10419000103023F02003DB04DB0C22F8103061B177
:1041A000032FEFD87168496891F800C0D8F8001063
:1041B000A7B90CF5A27C41F82C70304A04F1080133
:1041C00032F8113023F01C0343EA870322F8113040
:1041D000B3684BBB2B4804B0BDE8F08101EB8C0108
:1041E00043EA4C33D1F810E52EF0030EC1F810E588
:1041F000D8F8001001EB8C0E43F02003DEF8101508
:1042000022F8103021F44F3121F44071CEF810150E
:104210002902DEF8108501F47C5141EA074141EAA8
:104220000801CEF81015C8E7D3E900672846FFF764
:10423000D9FE002ECED0114DD5E90023964203D1F0
:104240009F4201D1002209E00F480DF10F01FFF755
:10425000F5FC0C4B9842BED19DF80F2045F832601A
:1042600005EBC20308345F6035F8143043EA42239B
:1042700043F4807325F81430ACE700BF000500203C
:104280000400AD0B0000AD0B780500202DE9F043D4
:104290000C4685B08046204611461E46FFF734FE88
:1042A000054629B32046FFF765FE18B92046FFF7FB
:1042B0006DFE18BB314F05F1080937F8193013F0BE
:1042C0001C0F02D04B78012B18D001238DF80F3032
:1042D0000023CDE900134A1C8B1C20460DF10F0171
:1042E00002F06BFF37F8193043F0030327F8193059
:1042F000002E41D02046FFF73DFE18B9204805B0FA
:10430000BDE8F08396F800C0D8F800301B4F0CF5DC
:10431000A272002143F8221005F1080237F81210AA
:1043200021F02001C904C90C27F8121075781DB3BB
:10433000D8F80000B67800EB8C002D04D0F81035CA
:1043400023F4991323F4F853C0F81035230203F42F
:104350007C5305F440353605D0F810E52B4306F4C0
:10436000801641EA4C31334341F0200143EA0E0309
:1043700027F81210C0F810350248C0E700050020E9
:104380000400AD0B0000AD0B014BC3E902127047F6
:104390000005002010B508461446FFF7F7FD50B1A0
:1043A0000846FFF7B1FD054B083033F810300448DC
:1043B0005B0B237010BD0348FCE700BF0005002025
:1043C0000000AD0B0400AD0B70B5164D95F88040A4
:1043D00006462CBB2146602205F1100003F06BF964
:1043E00030682E6F21468E420ED10023C0F87C31FA
:1043F000D0F87C3140F30730FDF79EFE01230A48D8
:1044000085F88030AB6770BDCBB29B0003F580723E
:104410007C2B08BF845001F1010108BF8358E2E7FB
:104420000248F0E7000500200000AD0B0C00AD0BCA
:10443000034B93F88000003818BF0120704700BF7D
:10444000000500200148FFF71DBC00BF74050020D7
:104450000148FFF7F3BB00BF7405002073B5036884
:104460001646D3F80423002AA8BF4FF000420546A1
:10447000A8BFC3F8042308460C46FFF787FD00B326
:104480000846FFF777FD0146D8B92046FFF766FDDD
:1044900004B2A40004F5807203462868815029689C
:1044A00082582144D1F8102542F00102C1F81025AC
:1044B0002EB12968012202FA03F3C1F8043302B0D5
:1044C00070BD2046FFF720FD0F4B083033F8103049
:1044D000C3F38203042B12D0052B12D001A8019440
:1044E000FFF702FD019AD0F81035D34003F0010325
:1044F000991C204602B0BDE8704002F0A7BE03211F
:10450000F7E70221F5E700BF000500202DE9F04F95
:10451000694BDFF8A881D3F80403D8F87010C0B253
:1045200089B040F00040FFF789FD051E2FDAC24632
:1045300000235AF87C1F06A8CDE90633FFF732FDA9
:104540005F4B01930DF118094FF0000B019A12F81F
:10455000013B0192DA0803F007031AF8022022FA5D
:1045600003F3DA071CD409F10409BBF1000F14D0DE
:10457000D8F870104FF00040FFF760FDD8F87C10BD
:1045800006A8FFF70FFD0028DAD125F00045012429
:10459000002D79D109B0BDE8F08F4FF0010BD5E7C0
:1045A000484B5B440293D9F800100029DBD0029BF2
:1045B00091FAA1F11C78B1FA81F141EA4414204644
:1045C000FFF7A2FC0830059438F81070C808BB0843
:1045D00019F80020039301F00701012303FA01F108
:1045E00022EA010209F8002005A8FFF77DFC059AE0
:1045F000039B02F5E072C7F3820650F822205B07A6
:104600003746C2F3014224D520463946D6B2FFF7D9
:1046100085FC05A80594FFF767FC059B03F5E0738F
:1046200050F82330C3F301439E4207D100212046B6
:1046300002F00CFE3146204602F008FE05A8059463
:10464000FFF752FC059B012202FA03F3C0F8203564
:10465000A9E7022A0CD10321204602F0F7FD06F05B
:104660000503012BEAD139462046FFF757FCE5E761
:1046700002212046039202F0E9FD032EF3D0039AB3
:10468000032ADBD1022EEDE795FAA5F3B3FA83F303
:1046900004FA03F29B0003F1804303F5C04325EACB
:1046A0000205D3F81005D3F81015C0F30520C1F3A7
:1046B0000141FFF733FC6BE700600040000500207C
:1046C0009486000094860000036803F01F025B09D3
:1046D000026004D0012B034818BF002070474FF040
:1046E000A0407047000300502DE9F3410B7D0446C4
:1046F00033BB4B68019301A8FFF7E6FF019A304DE9
:1047000001239340C0F80C354B68019301A8FFF7D3
:10471000DBFF019B00EB8300D0F800372B4043F018
:104720000303C0F800378B68019301A8FFF7CCFFA3
:10473000019B00EB8300D0F800372B40C0F8003716
:104740004B7D33B9D1E901022368C3F84005C3F8B2
:1047500044254A7808782368D1F80C8091F810E055
:1047600091F811C04F7DD1E901655200C97CC3F8B1
:10477000201502F0020200F001010A43C3F804858B
:10478000C3F80825C3F818E5C3F81CC51FB9C3F85A
:104790004065C3F8445524680023C4F80031D4F8B8
:1047A0000021C4F8043144F30730D4F80431FDF794
:1047B000C3FC0323C4F8043302B0BDE8F08100BF9A
:1047C000F0F8FCFF07B5019001A8FFF77DFF019B02
:1047D00000EB8300054BD0F80027134043F00203A1
:1047E000C0F8003703B05DF804FB00BFF0F8FCFF31
:1047F00038B50D4C257C9DB9C4E901556582226010
:10480000657449B10A7D62750A7C502A0AD84B7CCE
:10481000502B07D8FFF768FF01230448237438BDE5
:104820000348FCE70348FAE7300E00200000AD0B18
:104830000C00AD0B0400AD0B10B50446006840F34E
:104840000730FDF787FC236809490022C3F80025DB
:104850004B7D4BB92368D3F84005D3F84445FFF7A7
:10486000B1FF2046FFF7AEFF00230B7410BD00BF61
:10487000300E00200E4B5A7C22B15B7C012B14D1F0
:104880000C48704702225A7401221A75036843F3D8
:104890000733002BF4DB590903F01F039A4001F1A1
:1048A0004003054941F82320EAE70448704700BF68
:1048B000300E00200000AD0B00E100E00B00AD0B5E
:1048C000F8B5214C237C05460F461646002B35D003
:1048D000637C032B34D0002934D0130432D4006815
:1048E00040F30730FDF736FC627CA37C022A1ABF36
:1048F000DB4303F00103002304EB83025168D9B9C1
:1049000004EB430357609E812B68C3F86075C3F8BE
:104910006465237C022B07D0022323742A680123B9
:10492000C2F800352A681360084C286840F3073045
:10493000FDF702FC2046F8BD054CF6E7054CF9E70B
:10494000034CF7E7044CF5E7300E00200000AD0BF8
:104950000B00AD0B0500AD0B0400AD0B0C4B597CEF
:104960000129CAB20BD05A7C12B15A7C022A0CD14E
:1049700001680022C1F800255A74064870470321D7
:1049800059741A7403685A60F7E70348704700BF08
:10499000300E00200000AD0B0B00AD0B1FB5404BDF
:1049A000404CD3F80021002A44D00022C3F8002153
:1049B000D3F80011D3F8041119B1C3F80421D3F8C6
:1049C0000431A37CDA4302F0010204EB820149685E
:1049D00011B9617C022952D1607C022818BF04EB16
:1049E00083034FF000010BBF0123586863745960C3
:1049F0004FF001038DF80C10E1740EBF029102908C
:104A0000A2748DF80430236801A89847637C022BB8
:104A100001D101236374237D53B101238DF8043048
:104A2000002302938DF80C30237501A82368984762
:104A300004B010BDD3F804110029ECD0C3F8042150
:104A4000D3F80411C3F80025A37C627404EB83033C
:104A50008DF80C2059688DF80420D9B9A37CDB436C
:104A600003F0010304EB83035A682AB10292002287
:104A70005A6001A8236898470023A374CBE7E37C1E
:104A8000002BC3D18DF80430029301238DF80C3034
:104A9000E374B8E75A600291236801A89847DDE7FC
:104AA00000D00140300E002001460148FFF7C6B893
:104AB0008405002008B5124BA8220021184602F0F8
:104AC000FAFD032202610F4942610F4A8161C2610E
:104AD0004FF480620262002282624262C262016618
:104AE0000A49416610218166094902670346C26688
:104AF000426711F8010D98540132102AF9D108BD0E
:104B00001004002096860000100000200000002005
:104B1000AF8600002DE9F84FDFF87C80182606FBF1
:104B2000008E00FB06664644DEF82440DEF828C00E
:104B30007368A44507468946154603EB040022D84E
:104B4000DEF820B0ABEB040A0AF1FF339A4203D837
:104B500002F0A3FD2C440FE063449A4219D8524658
:104B60002C4402F09AFDB4EB0B0405D07068224689
:104B700009EB0A0102F091FD182303FB07830120D2
:104B80005C62BDE8F88F0CF1FF3CACEB040C944583
:104B9000DED20020F5E700BF10040020034B1822EE
:104BA00002FB00339A6A586A801A7047100400208A
:104BB00010B4084A08490023C85C12F8014D844229
:104BC00004D10133102BF7D110BC704710BCFFF794
:104BD00071BF00BFAF8600001004002010B504466E
:104BE000FCF742FB0348044A012102F06BF820461F
:104BF00002F085FB907A0000B08600002DE9F843B2
:104C0000044600AF0D46EFF31188202383F312888A
:104C1000BFF36F8F0428294A98BF294B9668117CEF
:104C200094BF53F82030274BE9468AB06A4626489D
:104C3000C2E9073140F201339384244BC2E90504F1
:104C400042F8103F224800234FF43151FCF7DCFBBF
:104C5000CD4645B1EB69C3F3080323B11D4A1C4897
:104C6000012102F02FF82EB1304602F002FC08B10B
:104C7000037803B91848E9468AB06A46174BD061F1
:104C8000C2E9053640F201331384154B42F8103F58
:104C900000230F484FF41151FCF7B6FB2946CD46CF
:104CA0002046FFF79BFF88F31188BFF36F8F3046D4
:104CB000FDF7EAF9BD46BDE8F88300BF480E0020C5
:104CC000E07C0000BF860000D586000005000001E2
:104CD000907A0000FD860000CD8600001E8700004F
:104CE0000400000138B5094B53F82040013053F857
:104CF0002050A54200D838BD636823B1204602F099
:104D000006FB0834F5E723689847FAE7F47C0000CF
:104D100070B52B4B2B4C2C4D012286B003201A7002
:104D2000FFF7E0FF01F00CF802F00DFB0420FFF7A5
:104D3000D9FF2646AE4204F1300410D300F000FC47
:104D4000204C224EAC4226D300F00EFCFBF74AFB6F
:104D50001F4A137B23F00103137306B070BD54F890
:104D60000C3C059354F8103C049354F8143C039302
:104D700054F8183C029354F81C3C019354F8203C1E
:104D8000009354E90A2354E90C0100F037FA54F86F
:104D9000303C5E65CDE7D4E90A23B3F1FF3F08BF9D
:104DA000B2F1FF3F05D052EA0301206803D100F0C1
:104DB0009BFC3034C6E73146183000F02BFEF8E794
:104DC000900E0020FC790000FC7900006575000061
:104DD000680B002008B50348034A0021121A02F0AC
:104DE000AEFA08BD08060020940E002070B500231E
:104DF00086B00122CDE90423134E144D01930F22F6
:104E0000CDE902321249142303FB005506EBC0160C
:104E100004464FF4C07000FB04110E4B00954FF494
:104E2000A072304600F0EAF9737B0B4AEE6023F083
:104E3000040373734FF4046304FB033313442C74AF
:104E40006B6006B070BD00BFE80A0020480E00206D
:104E5000401A0020FB73000000120020BFB50020A4
:104E6000FFF740FF2A4B83F308882A4C2A4F6369D7
:104E700043F4007363610025E02384F82230E57772
:104E800025766576A57684F82050636A43F4E0239E
:104E9000636284F82350FDF7C9F8FDF709FA4FF073
:104EA000FF33A362E362FDF7DDFAFDF725FAFCF7B5
:104EB00045F91A481A4C00F019FA02F014FA0120C8
:104EC000FFF710FF0220FFF70DFF00F081FB154BED
:104ED00015495C61154B05930123CDE903534FF44C
:104EE00080623B46CDE901550095204600F086F9E9
:104EF000627B064622F004022046627302F0F5FA55
:104F00002846FFF773FF3A4631462046FDF7B2F9CF
:104F1000401A002000ED00E0114D0000E80B0020D9
:104F2000680B0020480E0020C01B00208087000076
:104F300038B5064C064DAC4201D3002038BDD4E94B
:104F40000112204602F000FA1434F4E7F4050020C0
:104F5000F405002038B5064C064D0020AC4200D3C5
:104F600038BD204602F0F8F90028F9DB1C34F5E7DB
:104F7000D8050020F405002073B50C46EFF311812D
:104F8000202585F31288BFF36F8FC5685DB125605A
:104F90002B68C360836901338361002081F311882A
:104FA000BFF36F8F11E052EA030603D125606FF063
:104FB0000B00F3E7CDE900230246083000F06EFA5B
:104FC00018B9034B9B685B69236002B070BD00BFDA
:104FD000480E00202DE9F34104460E4600F1080872
:104FE000EFF31187202181F31288BFF36F8F006ADE
:104FF000E168884233D22568AC4219D0C5B1284651
:1050000002F006FA05F1180002F0F8FAA2686869E1
:105010003146002402F041FB2846AC6702F065FAF5
:105020004046394600F066FA204602B0BDE8F081FD
:10503000A268E069314602F030FBE369A2681344DC
:105040006269E361934204BF2369E361236A013328
:105050002362002087F31188BFF36F8FE5E752EAE0
:1050600003010AD00649896840464E61CDE9002314
:105070003946224600F012FAD7E76FF02200E9E73E
:10508000480E0020F7B5044604F108070846EFF380
:105090001186202181F31288BFF36F8F216A0029C6
:1050A00039D0A268A16902F0F8FAA369A26825685C
:1050B00013446269A361934204BF2369A361236A15
:1050C000AC4203F1FF33236233D02846002D31D0A8
:1050D00002F09EF905F1180002F090FAA2686969E1
:1050E000E06902F0DAFAE369A26813446269E361F5
:1050F000934204BF2369E361236A013323620024DE
:105100002846AC6702F0F1F93846314600F0F2F972
:10511000204603B0F0BD52EA030110D00949896866
:105120004861CDE9002331462246384600F0B6F901
:10513000EFE7002086F31188BFF36F8FE9E76FF088
:105140002200F7E7480E002070B5EFF31186202308
:1051500083F31288BFF36F8F0468A0421AD0CCB1DA
:10516000D4E9003213605A60637B002523F0020308
:105170006373C4E90055A56004F1180002F03EFA1B
:105180002046A56702F0B1F931460848BDE87040F5
:1051900000F0B0B9D0E902329A4218BF01338360FF
:1051A00086F31188BFF36F8F70BD00BF910E002092
:1051B00013B5EFF31181202484F31288BFF36F8FAE
:1051C000846844B1013C846081F31188BFF36F8F20
:1051D000002002B010BD52EA030406D181F3118809
:1051E000BFF36F8F6FF00F00F3E7CDE900230246A6
:1051F000014800F053F9ECE7910E00202DE9F0434F
:10520000073285B022F007020E461F46109901733F
:1052100000F158037F32C0E916330446002322F020
:105220003F020421836041733F2A0F98A073C4E9B1
:105230000633E37306F14009A2F1400805D883F371
:105240001188BFF36F8F084602DFB5182946204644
:10525000FCF794FC07300E9B20F00700A066C4E921
:10526000189802930D9B01932D1A0C9B00932A46CC
:105270003B4631462046FCF7CBFF00236365044BD9
:105280009B6803B1DB6EE366284605B0BDE8F0839A
:10529000480E0020F0B587B000250595109D0495B7
:1052A0000F9D03950E9D0295DDE912760D9D0195EA
:1052B0000C9D00950446FFF7A1FFB6F1FF3F08BF24
:1052C000B7F1FF3F05D056EA070305D1204600F0AD
:1052D0000BFA204607B0F0BD03493A46334604F1C5
:1052E000180000F097FBF4E76575000040F2011329
:1052F00083810023C0E91833C366014B986070476F
:10530000480E0020094A93686FF00A01996708491E
:1053100058674B6843F080534B60002383F3118838
:10532000BFF36F8F9368986F704700BF480E0020DF
:1053300000ED00E070B590F90D20437B002A36DBCC
:10534000D90634D11B4C63F07F032246437352F8D5
:10535000183FE169934207D1C0E900210860E0618C
:1053600011E09942F8D01B68002BF5D090F90E504F
:1053700093F90E60B542F4D0AE42F2DD5968C0E94F
:10538000003108605860A569954200D005B9E5680C
:10539000A3685A7BD20604D1DA897F2A01D9AA6987
:1053A00032B1AB4202D0284600F092FA656170BD7E
:1053B0006361FCE7480E002038B590F90D20437B6F
:1053C000002A014604DA03F07F03437302F053F826
:1053D0000D4D2A46AB6852F8184F944200D004B9DC
:1053E000EC688B4207D05A7BD20604D1DA897F2A37
:1053F00001D9A2692AB1A34202D0204600F068FA7E
:1054000023466B6138BD00BF480E002070B590F98F
:105410000D20437B002A014604DA03F07F03437327
:1054200002F029F84B7B1C4C63F07F0322464B7340
:1054300052F8183FE069934207D1C1E900200160AA
:10544000E16111E09842F8D01B68002BF5D091F98A
:105450000E5093F90E60B542F4D0AE42F2DD5868BA
:10546000C1E9003001605960A569A368954200D088
:1054700005B9E5688B4207D05A7BD20604D1DA8998
:105480007F2A01D9AA692AB1AB4202D0284600F08E
:105490001FFA2B46636170BD480E0020F8B5124B11
:1054A0000C461146114A98681060DDE90676EFF364
:1054B0001182202282F31288BFF36F8F9D682846E5
:1054C00001F0EBFFB6F1FF3F08BFB7F1FF3F06D099
:1054D00007493A46334605F1180000F09BFA20468A
:1054E000BDE8F840FFF70EBF480E0020680E002010
:1054F0006575000049B9EFF3058030B9054B5A696D
:105500009B689A4201D0FFF7FDBE81F31188BFF37B
:105510006F8F7047480E0020034648B9EFF30582AD
:1055200032B9064A51699268914201D0FFF7EABE4A
:1055300083F31188BFF36F8F704700BF480E0020C0
:10554000EFF31181202383F31288BFF36F8F054B94
:105550009A68D37B013BD37381F31188BFF36F8FBC
:10556000704700BF480E002070B5EFF3118620236E
:1055700083F31288BFF36F8F144DAB68DA7B01326F
:10558000DA732A4652F8184F944200D004B9EC68F6
:105590005A7BD20604D1DA897F2A01D9A2692AB1BD
:1055A000A34202D0204600F093F923466B6186F3B4
:1055B0001188BFF36F8FEFF31180202383F31288DC
:1055C000BFF36F8FBDE87040FFF7A6BF480E002005
:1055D000024B03F11802C3E906227047480E00206F
:1055E00070B5EFF31186202383F31288BFF36F8F1A
:1055F0001B4CA168E0690B68814214BF1A46002267
:1056000049680B605960A368E1692AB9154AC3E982
:1056100000210B60E3610CE093F90E0092F90E504B
:10562000A84218D0854216DD5168C3E900210B60FD
:105630005360A5690B4B9D4200D005B9E568A3688E
:105640009D4202D0284600F043F965613046BDE82E
:105650007040FFF757BE8A42D8D01268D5E700BF26
:10566000480E0020600E002050EA01032DE9F041B1
:1056700005460E4604D1FFF7B3FF0020BDE8F081D8
:10568000831C71F1FF3324DB01F0D9FF2C18EFF3F9
:105690001188202383F31288BFF36F8F0F4F104BB5
:1056A000B8681860FFF788FEB8680E492A46334686
:1056B000183000F0AFF9BA68537B43F0040353731A
:1056C0004046FFF71FFE01F0BAFF201A20EAE07003
:1056D000D4E76FF00104241AD9E700BF480E002078
:1056E000680E00206575000038B50446EFF311859B
:1056F000202383F31288BFF36F8F437B5B070FD5A3
:10570000183001F07BFF637B23F0040320466373B2
:10571000FFF710FE29460548BDE83840FFF7EABE0E
:1057200085F31188BFF36F8F38BD00BF910E002045
:10573000014B9868704700BF480E00202DE9F843E0
:105740000446077BEFF31185202383F31288BFF310
:105750006F8F437B190705D585F31188BFF36F8FD2
:10576000BDE8F883D90943F008025AD14273A3680F
:1057700013B1204601F087FE04F1180001F03EFF4E
:10578000A66D04F15808B04511D04FF0000976B16C
:10579000304601F078FE06F1180001F02FFFC6F840
:1057A00078903046FFF7C6FDA66DB045EFD1DFF823
:1057B000B880D8F808309C423BD1EFF30589B9F1A5
:1057C000000918BF4FF00109D8F81860274A96421F
:1057D00000D00EB9D8F80C60B34202D0304600F0C9
:1057E00077F8C8F81460B9F1000F02D02048FFF72D
:1057F0007DFDD8F808309C4231D1EFF3058373BBAF
:10580000227BD20718D42846FFF77CFDFB07A7D5DB
:10581000002383F31188BFF36F8F0423184602DF40
:105820009EE703F07F0343F00803437301F023FE78
:105830009DE74FF00009C7E785F31188BFF36F8F2D
:1058400083F31188BFF36F8F0423184602DFEFF351
:105850001180202383F31288BFF36F8FD4E785F381
:105860001188BFF36F8FD1E7480E0020600E002033
:10587000E80B0020044BC01A044BC0105843044BE3
:1058800001221A54704700BF680C0020ABAAAAAAD4
:10589000910E0020C3897F2B12D80A4B1B6863B17D
:1058A000094B90F90E201B689A4209DB437BDB060B
:1058B00006D1064BC31A18BF012303F0010070473D
:1058C0000023FAE7700E00206C0E0020E80A00208A
:1058D00070B50E4B0E4C1E7C06EB460304EBC30466
:1058E0000546204601F08AFE0A4B002228469A55BA
:1058F000FFF7D0FF48B1084B08491A68013A204623
:10590000D317BDE8704000F085B870BD480E002088
:10591000680C0020910E0020700E002075580000C9
:1059200038B5EFF31185202383F31288BFF36F8F0F
:10593000104B114A9C681068A04206D1FFF7C8FFBF
:1059400085F31188BFF36F8F38BD00211B7C116078
:105950000A4AD35C002BF3D02046FFF79BFF0028B8
:10596000EED0637BDB0602D12046FFF74FFD2046D9
:10597000E4E700BF480E0020680E0020910E0020D2
:105980000748084A084908B5121A01F0DAFC074826
:10599000074A0849BDE80840121A01F0D2BC00BF0E
:1059A000C004002004060020C8870000B8040020BE
:1059B000C0040020C0870000024B1868984208BF4E
:1059C0000020704788050020034B1B680BB9FEF7C9
:1059D00033B80020704700BF740E002030B570B19E
:1059E0000B4B5B6898420AD0036843B1D3E90421AA
:1059F000D0E90445121941EB0501C3E90421D0E9BE
:105A0000003213605A600023C0E9003330BD00BF8C
:105A100088050020B3F1FF3F08BFB2F1FF3FF8B5A2
:105A200004461D4616465AD08160EFF311872023A5
:105A300083F31288BFF36F8F013275F1FF3321DAE0
:105A40002C49D1E900206FF001039B1A4FF0FF327F
:105A500062EB00009E1B60EB0500012E70F100035D
:105A600001DA01260020C4E90460FFF7A5FF224EF9
:105A700084467068BCF1000F0DD1C4E90060046079
:105A800074601CE0FFF7A0FF013645F100053618F1
:105A900045EBE070E7E7DCE90425D4E90431934203
:105AA00071EB050E1CDAD21ADCF8043065EB010547
:105AB000CCE90425C4E900C31C60CCF80440FFF71E
:105AC0007BFF844207D10D4B1C6824B901F07DFD9A
:105AD0002146FDF783FF87F31188BFF36F8FF8BD71
